{
  "contractName": "Accounts",
  "abi": [
    {
      "constant": true,
      "inputs": [],
      "name": "numAccounts",
      "outputs": [
        {
          "internalType": "uint256",
          "name": "",
          "type": "uint256"
        }
      ],
      "payable": false,
      "stateMutability": "view",
      "type": "function"
    },
    {
      "constant": false,
      "inputs": [
        {
          "internalType": "bool",
          "name": "create",
          "type": "bool"
        },
        {
          "internalType": "string",
          "name": "id",
          "type": "string"
        },
        {
          "internalType": "string",
          "name": "password",
          "type": "string"
        },
        {
          "internalType": "string",
          "name": "name",
          "type": "string"
        }
      ],
      "name": "updateAccount",
      "outputs": [],
      "payable": false,
      "stateMutability": "nonpayable",
      "type": "function"
    },
    {
      "constant": false,
      "inputs": [
        {
          "internalType": "string",
          "name": "id",
          "type": "string"
        }
      ],
      "name": "deleteAccount",
      "outputs": [],
      "payable": false,
      "stateMutability": "nonpayable",
      "type": "function"
    },
    {
      "constant": true,
      "inputs": [
        {
          "internalType": "uint256",
          "name": "index",
          "type": "uint256"
        }
      ],
      "name": "accountAt",
      "outputs": [
        {
          "internalType": "string",
          "name": "password",
          "type": "string"
        },
        {
          "internalType": "string",
          "name": "name",
          "type": "string"
        }
      ],
      "payable": false,
      "stateMutability": "view",
      "type": "function"
    },
    {
      "constant": true,
      "inputs": [
        {
          "internalType": "string",
          "name": "id",
          "type": "string"
        }
      ],
      "name": "getAccount",
      "outputs": [
        {
          "internalType": "string",
          "name": "password",
          "type": "string"
        },
        {
          "internalType": "string",
          "name": "name",
          "type": "string"
        }
      ],
      "payable": false,
      "stateMutability": "view",
      "type": "function"
    }
  ],
  "bytecode": "0x608060405234801561001057600080fd5b50610c60806100206000396000f3fe608060405234801561001057600080fd5b50600436106100575760003560e01c80634518f6b31461005c5780638ce25a93146101fc578063c9f016f71461021a578063d5e363f91461040f578063e51442e3146104ca575b600080fd5b6101156004803603602081101561007257600080fd5b810190808035906020019064010000000081111561008f57600080fd5b8201836020820111156100a157600080fd5b803590602001918460018302840111640100000000831117156100c357600080fd5b91908080601f016020809104026020016040519081016040528093929190818152602001838380828437600081840152601f19601f8201169050808301925050505050505091929192905050506105dd565b604051808060200180602001838103835285818151815260200191508051906020019080838360005b8381101561015957808201518184015260208101905061013e565b50505050905090810190601f1680156101865780820380516001836020036101000a031916815260200191505b50838103825284818151815260200191508051906020019080838360005b838110156101bf5780820151818401526020810190506101a4565b50505050905090810190601f1680156101ec5780820380516001836020036101000a031916815260200191505b5094505050505060405180910390f35b610204610739565b6040518082815260200191505060405180910390f35b61040d6004803603608081101561023057600080fd5b810190808035151590602001909291908035906020019064010000000081111561025957600080fd5b82018360208201111561026b57600080fd5b8035906020019184600183028401116401000000008311171561028d57600080fd5b91908080601f016020809104026020016040519081016040528093929190818152602001838380828437600081840152601f19601f820116905080830192505050505050509192919290803590602001906401000000008111156102f057600080fd5b82018360208201111561030257600080fd5b8035906020019184600183028401116401000000008311171561032457600080fd5b91908080601f016020809104026020016040519081016040528093929190818152602001838380828437600081840152601f19601f8201169050808301925050505050505091929192908035906020019064010000000081111561038757600080fd5b82018360208201111561039957600080fd5b803590602001918460018302840111640100000000831117156103bb57600080fd5b91908080601f016020809104026020016040519081016040528093929190818152602001838380828437600081840152601f19601f820116905080830192505050505050509192919290505050610746565b005b6104c86004803603602081101561042557600080fd5b810190808035906020019064010000000081111561044257600080fd5b82018360208201111561045457600080fd5b8035906020019184600183028401116401000000008311171561047657600080fd5b91908080601f016020809104026020016040519081016040528093929190818152602001838380828437600081840152601f19601f820116905080830192505050505050509192919290505050610837565b005b6104f6600480360360208110156104e057600080fd5b8101908080359060200190929190505050610936565b604051808060200180602001838103835285818151815260200191508051906020019080838360005b8381101561053a57808201518184015260208101905061051f565b50505050905090810190601f1680156105675780820380516001836020036101000a031916815260200191505b50838103825284818151815260200191508051906020019080838360005b838110156105a0578082015181840152602081019050610585565b50505050905090810190601f1680156105cd5780820380516001836020036101000a031916815260200191505b5094505050505060405180910390f35b60608060006105ed846001610aa9565b90508060010181600201818054600181600116156101000203166002900480601f01602080910402602001604051908101604052809291908181526020018280546001816001161561010002031660029004801561068c5780601f106106615761010080835404028352916020019161068c565b820191906000526020600020905b81548152906001019060200180831161066f57829003601f168201915b50505050509150808054600181600116156101000203166002900480601f0160208091040260200160405190810160405280929190818152602001828054600181600116156101000203166002900480156107285780601f106106fd57610100808354040283529160200191610728565b820191906000526020600020905b81548152906001019060200180831161070b57829003601f168201915b505050505090509250925050915091565b6000600180549050905090565b600083805190602001209050846107655761076081610ac4565b610770565b61076e81610ac4565b155b61077657fe5b60405180606001604052808581526020018481526020018381525060008083815260200190815260200160002060008201518160000190805190602001906107bf929190610b3e565b5060208201518160010190805190602001906107dc929190610b3e565b5060408201518160020190805190602001906107f9929190610b3e565b5090505084156108305760018190806001815401808255809150509060018203906000526020600020016000909192909190915055505b5050505050565b60008180519060200120905061084c81610ac4565b61085257fe5b600080828152602001908152602001600020600080820160006108759190610bbe565b6001820160006108859190610bbe565b6002820160006108959190610bbe565b505060008090505b6001805490508110156109315781600182815481106108b857fe5b9060005260206000200154141561092457600180808054905003815481106108dc57fe5b9060005260206000200154600182815481106108f457fe5b9060005260206000200181905550600180548061090d57fe5b600190038181906000526020600020016000905590555b808060010191505061089d565b505050565b606080600061095d6001858154811061094b57fe5b90600052602060002001546001610af9565b90508060010181600201818054600181600116156101000203166002900480601f0160208091040260200160405190810160405280929190818152602001828054600181600116156101000203166002900480156109fc5780601f106109d1576101008083540402835291602001916109fc565b820191906000526020600020905b8154815290600101906020018083116109df57829003601f168201915b50505050509150808054600181600116156101000203166002900480601f016020809104026020016040519081016040528092919081815260200182805460018160011615610100020316600290048015610a985780601f10610a6d57610100808354040283529160200191610a98565b820191906000526020600020905b815481529060010190602001808311610a7b57829003601f168201915b505050505090509250925050915091565b6000610abc838051906020012083610af9565b905092915050565b600080600080848152602001908152602001600020600001805460018160011615610100020316600290049050119050919050565b600080600080858152602001908152602001600020905082610b2457610b1e84610ac4565b15610b2e565b610b2d84610ac4565b5b610b3457fe5b8091505092915050565b828054600181600116156101000203166002900490600052602060002090601f016020900481019282601f10610b7f57805160ff1916838001178555610bad565b82800160010185558215610bad579182015b82811115610bac578251825591602001919060010190610b91565b5b509050610bba9190610c06565b5090565b50805460018160011615610100020316600290046000825580601f10610be45750610c03565b601f016020900490600052602060002090810190610c029190610c06565b5b50565b610c2891905b80821115610c24576000816000905550600101610c0c565b5090565b9056fea265627a7a7231582051017b012238a2f7f2b6a631aab55a9bdba7c570c01cfe22d593503b2a78f45864736f6c63430005100032",
  "source": "pragma solidity >=0.4.25 <0.6.0;\n\ncontract Accounts {\n  mapping (bytes32 => Account) accounts;\n  bytes32[] keys;\n  string test2;\n\n  struct Account {\n    string id;\n    string password;\n    string name;\n  }\n\n  function numAccounts() public view returns (uint) {\n    return keys.length;\n  }\n  function updateAccount(bool create, string memory id, string memory password, string memory name) public {\n    bytes32 hash = keccak256(bytes(id));\n\n    assert(create ? !exists(hash) : exists(hash));\n    accounts[hash] = Account(id, password, name);\n    if (create) {\n      keys.push(hash);\n    }\n  }\n  function deleteAccount(string memory id) public {\n    bytes32 hash = keccak256(bytes(id));\n\n    assert(exists(hash));\n    delete accounts[hash];\n    for (uint i = 0; i < keys.length; i++) {\n      if (keys[i] == hash) {\n        keys[i] = keys[keys.length - 1];\n        keys.pop();\n      }\n    }\n  }\n  function accountAt(uint index) public view returns (string memory password, string memory name) {\n    Account storage acct = accountForHash(keys[index], true);\n\n    return (acct.password, acct.name);\n  }\n  function getAccount(string memory id) public view returns (string memory password, string memory name) {\n    Account storage acct = account(id, true);\n\n    return (acct.password, acct.name);\n  }\n  function exists(bytes32 hash) internal view returns (bool) {\n    return bytes(accounts[hash].id).length > 0;\n  }\n  function account(string memory id, bool mustExist) internal view returns (Account storage) {\n    return accountForHash(keccak256(bytes(id)), mustExist);\n  }\n  function accountForHash(bytes32 hash, bool mustExist) internal view returns (Account storage) {\n    Account storage acct = accounts[hash];\n\n    assert(mustExist ? exists(hash) : !exists(hash));\n    return acct;\n  }\n}\n",
  "sourcePath": "/zen/aux/work/Web3/example/contract/contracts/Accounts.sol",
  "compiler": {
    "name": "solc",
    "version": "0.5.16+commit.9c3226ce.Emscripten.clang"
  },
  "schemaVersion": "3.1.0",
  "updatedAt": "2020-05-10T12:11:20.566Z",
  "networkType": "ethereum",
  "devdoc": {
    "methods": {}
  },
  "userdoc": {
    "methods": {}
  }
}